:020000040800F2
:10000000F80400200101000853170008B11500088A
:1000100051170008A9010008091D00080000000090
:10002000000000000000000000000000571700085A
:10003000AB01000800000000551700085917000820
:100040001B0100081B0100081B0100081B01000820
:100050001B0100081B0100081B0100081B01000810
:100060001B0100081B0100081B0100081B01000800
:100070001B0100081B0100081B0100081B010008F0
:100080001B0100081B0100081B0100081B010008E0
:100090001B0100081B0100081B010008B501000836
:1000A0001B0100081B0100081B0100081B010008C0
:1000B000E91700081B0100081B0100081B010008CC
:1000C0001B0100081B0100081B0100081B010008A0
:1000D0001B0100081B0100081B010008FD1C000893
:1000E000AD0100081B0100081B010008DFF80CD05F
:1000F00000F048F800480047D51E0008F80400202A
:100100000648804706480047FEE7FEE7FEE7FEE7B1
:10011000FEE7FEE7FEE7FEE7FEE7FEE7A1170008C1
:10012000ED000008D2B201E000F8012B491EFBD21D
:1001300070470022F6E710B513460A4604461946F2
:10014000FFF7F0FF204610BD421C10F8011B0029EC
:10015000FBD1801A704730B50B46014600202022A3
:10016000012409E021FA02F59D4205D303FA02F5C4
:10017000491B04FA02F52844151EA2F10102F1DC24
:1001800030BD0000064C074D06E0E06840F001037A
:1001900094E8070098471034AC42F6D3FFF7AAFF63
:1001A0007423000894230008FEE770474FF4806032
:1001B00000F082B810B54FF4807000F07DF8BDE813
:1001C00010404FF4007000F077B8000010B590F8C0
:1001D00021100024022903D00421816301243DE081
:1001E00001680A6822F00E020A6001680A6822F0BB
:1001F00001020A601A4A0168914201D1012121E0FD
:10020000174A1432914201D110211BE0144A2832BE
:10021000914201D1891515E0114A3C32914201D138
:1002200089140FE00E4A5032914202D14FF48031CE
:1002300008E00B4A6432914202D14FF4801101E090
:100240004FF08071064A083A5160012180F8211070
:10025000002180F82010416B01B18847204610BD75
:100260000800024070B5044600F028F90546601CFD
:1002700002D004480078044400F020F9401BA0425A
:10028000FAD370BD24000020B0F5807F05D0B0F512
:10029000007F02D0B0F5806F0BD10648C1780029ED
:1002A00007D00178491CC9B20170062901D9012182
:1002B0000170704700000020044910B50A6802422E
:1002C00002D00860FFF7E0FF10BD000014040140F9
:1002D0002DE9F84FDFF8B891002409F1040A0AF17A
:1002E000040B23460F270BF1040EC9E00125A5409E
:1002F0002A40AA427DD1674ED1F804C0ACEB060873
:10030000B44532D014DCBCF1030F3AD009DCBCF1A7
:10031000000F2AD0BCF1010F1CD0BCF1020F31D16B
:100320001DE0BCF1110F17D0BCF1120F2AD119E05A
:10033000B8F5881F19D006DCB8F5803F15D0B8F5A0
:10034000801F1FD111E0B8F5001F0ED0B8F5041FB3
:1003500018D10AE0CB6815E0CB681B1D12E0CB6812
:1003600008330FE0CB680C330CE08B682BB1012B0A
:100370004FF0080303D0456104E0042302E0056167
:1003800000E00023FF2A01D8064601E000F1040640
:100390004FEA840501D9A5F12005D6F8008007FAB7
:1003A00005FC28EA0C0803FA05F548EA0508C6F832
:1003B00000804D68ED0062D5374DAE6946F001060C
:1003C000AE61AD6924F0030605F001050095334DDB
:1003D00006EB050CDCF80850A607360F07FA06F8FE
:1003E00025EA0805DFF8B880404503D14FF0000842
:1003F00017E044E0DFF8AC80404502D14FF001083F
:100400000FE0DFF8A480404502D14FF0020808E079
:10041000DFF89880404502D14FF0030801E04FF02B
:10042000040808FA06F848EA0508CCF808804D6880
:10043000D9F80060ED034D4601D5164300E0964320
:100440002E604D68DAF80060AD03554601D51643BD
:1004500000E096432E604D68DBF80060ED025D46DB
:1004600001D5164300E096432E604D68DEF800602B
:10047000AD02754601D5164300E096432E60641C1C
:100480000D682A46E5407FF431AFBDE8F88F0000E3
:100490000004014000001110001002400000014063
:1004A00000080140000C0140001001400014014010
:1004B0000AB1016170470904FBE700000148806848
:1004C000704700002400002002488168027811442F
:1004D0008160704724000020074810B5016841F092
:1004E00010010160032000F075F8002000F006F80C
:1004F00000F024F8002010BD0020024070B50D4D22
:1005000004464FF47A712878B1FBF0F00A49096883
:10051000B1FBF0F000F0ECFA48B9102C07D2002241
:100520002146501E00F036F800206C6070BD01209E
:1005300070BD000024000020300000200C4808B5E9
:10054000816941F001018161816901F0010100913E
:10055000C16941F08051C161C06900F080500090D4
:100560000448416821F0E06141F00071416008BD3C
:100570000010024000000140002809DB00F01F02CB
:10058000012191404009800000F1E020C0F80011F5
:1005900070470000F0B40E4B1B680C46C3F30223F7
:1005A000C3F10705042D00D90425191D072901D21F
:1005B000002300E0DB1E012606FA05F1491E21405A
:1005C00099409E40761E16403143F0BC01F0B2BB0C
:1005D0000CED00E0064900F0070208684FF6FF0343
:1005E000184040EA0220034A1043086070470000A8
:1005F0000CED00E00000FA052DE9F0470F4605007C
:1006000061D0434E306800F00700B84209D230682C
:1006100020F0070038433060306800F00700B8422F
:1006200051D128683B4C810712D5400703D560683B
:1006300040F4E06060602878000703D5606840F40B
:10064000605060606068A96820F0F0000843606056
:100650002878C00728D06868012810D021680228AF
:1006600010D0890700292EDA616821F003010143C7
:100670006160FFF723FF804641F288390DE0216871
:100680008903EFE78901EDE7FFF718FFA0EB080109
:10069000494502D90320BDE8F0876068696800F029
:1006A0000C00B0EB810FEFD1306800F00700B842CA
:1006B0000BD9306820F0070038433060306800F014
:1006C0000700B84201D00120E5E72878400705D5AA
:1006D0006068E96820F4E0600843606028780007FB
:1006E00006D56068296920F4605040EAC100606066
:1006F00000F038F86168084AC1F30311515CC84042
:100700000649086006480068FFF7F8FE0020C2E7C7
:1007100000200240001002405C230008300000204E
:10072000280000200448054900684968044AC1F3CC
:100730000221515CC8407047300000200010024088
:100740006C2300080448054900684968044AC1F35D
:10075000C221515CC84070473000002000100240A8
:100760006C23000812A185B00FC98DE80F0014A0FA
:10077000144A006804905168134801F00C03042BDC
:1007800010D0082B0ED1C1F38343C9031DF8030019
:100790000AD5516804AAC1F34041515C0A4A50434A
:1007A000B0FBF1F005B0704708494843FAE7000094
:1007B00002030405060708090A0B0C0D0E0F1010A2
:1007C000010200000010024000127A0000093D0002
:1007D0002DE9F84F040070D02078C04DC00749D0F3
:1007E0006868C0F38100012807D06868C0F3810001
:1007F000022809D16868C00306D52868800339D566
:1008000060680028E7D035E06068B0F5803F0BD025
:1008100010B1B0F5A02F11D0286820F480302860E6
:10082000286820F4802002E0286840F480302860A6
:10083000606890B1FFF742FE06460AE0286840F47F
:1008400080202860F0E700BFFFF738FE801B642897
:1008500073D828688003F7D50CE0FFF72FFE064613
:1008600005E000BFFFF72AFE801B6428F0D8286847
:100870008003F7D420789A4E80074FF001094FF09B
:10088000000839D5686810F00C0F07D06868C0F30D
:100890008100022809D16868C00306D4286880074F
:1008A00014D52069012808D110E02069B0B1C6F83C
:1008B0000090FFF703FE074605E00AE1FFF7FEFDA3
:1008C000C01B0228C4D828688007F7D5286861694A
:1008D00020F0F80040EAC10028600DE0C6F8008072
:1008E000FFF7ECFD074604E0FFF7E8FDC01B022818
:1008F00023D828688007F7D4207800072CD57948BA
:10090000A169D9B1C0F80090FFF7D8FD074604E00F
:10091000FFF7D4FDC01B02280FD8686A8007F7D5FF
:1009200071484FF4FA510068B0FBF1F0009000BF3D
:100930000098411E0091FAD20EE080E0C0F80080DD
:10094000FFF7BCFD074604E0FFF7B8FDC01B022817
:1009500075D8686A8007F7D42078400760D5E869C1
:100960000027C00008D4E86940F08050E861E869D9
:10097000012700F0805000905C480168C90513D43D
:100980000168834641F480710160FFF797FD82465C
:1009900006E000BFFFF792FDA0EB0A0064284ED8E6
:1009A000DBF80000C005F5D5E06801280AD008B1E1
:1009B000052813D0286A20F001002862286A20F058
:1009C000040002E0286A40F001002862E06841F279
:1009D000883B98B1FFF772FD82460BE0286A40F031
:1009E00004002862EEE700BFFFF768FDA0EB0A01F4
:1009F00059455AD8286A8007F6D50CE0FFF75EFD06
:100A0000824605E0FFF75AFDA0EB0A0159454CD894
:100A1000286A8007F6D41FB1E86920F08050E861A9
:100A2000E06988B36968C1F38101022944D00228D2
:100A3000C6F8608004D0FFF741FD044638E034E09A
:100A4000FFF73CFD074604E0FFF738FDC01B022816
:100A50002BD828688001F7D4206AB0F5803F05D1F3
:100A60006868A16820F4003008436860D4E9080190
:100A70000843696821F4741108436860C6F86090FF
:100A8000FFF71CFD044606E025E000BFFFF716FD5A
:100A9000001B022809D828688001F7D51BE000BF99
:100AA000FFF70CFD001B022802D90320BDE8F88FD8
:100AB00028688001F4D40EE00128F7D06868226A23
:100AC00000F48031914204D1616A00F470108842D0
:100AD00001D00120EAE70020E8E700000010024012
:100AE000000042428004424230000020007000407A
:100AF00010B5401EB0F1807F01D3012010BD4FF032
:100B0000E02460610F21601701F014F90020A0615A
:100B100007202061002010BD7047704770B590F825
:100B20003C20012A19D0012400F83C4F02224270D7
:100B300050F83C3C5A689D6822F070060A68496883
:100B4000324325F0800529435A6050F83C2C9160CF
:100B5000447000210170084670BD022070BD10B5C0
:100B6000040003D094F83D0010B107E0012010BD4F
:100B7000002084F83C00204600F00CF8022084F8A5
:100B80003D00211D206800F035FE012084F83D0065
:100B9000002010BD00B585B00021009101910291A7
:100BA000039101681C48B1F1804F0CD01B4A91425F
:100BB00007D1C16941F00401C161C06900F00400BE
:100BC000049005B000BDC16941F00101C161C16976
:100BD00001F001010491816941F00801816180699E
:100BE000694600F008000490082000900C48FFF7C8
:100BF0006FFB0C48416821F4407141F0E06141F421
:100C000080714160002211461C20FFF7C3FC1C20AC
:100C1000FFF7B2FCD5E700000010024000080040DA
:100C2000000C01400000014070B5044690F83C0003
:100C3000012817D0012584F83C50022084F83D009B
:100C40002068826822F0770222F47F42826008687E
:100C5000502830D00DDC20284DD005DC98B310286A
:100C60003BD148E0022070BD302844D0402834D128
:100C700039E0602828D0702806D0B0F5805F2CD0ED
:100C8000B0F5005F29D10AE0CB68D1E901212068E5
:100C900000F0F3FD2068816841F0770109E0CB683E
:100CA000D1E90121206800F0E8FD2068816841F465
:100CB0008041816011E0CA684968206800F092FEB6
:100CC0005021206807E016E0CA684968206800F0F3
:100CD000C7FE6021206800F0DAFD84F83D50002056
:100CE00084F83C0070BDCA684968206800F07AFE4C
:100CF00040212068EFE7226801461046EBE700003C
:100D000010B5007F022813D108210A4800F065FAC7
:100D100009498860CA68904203D900BFA0EB02036A
:100D20008B6105D2A0EB02004FF6FF721044886180
:100D300010BD000074000020000000202DE9F041EB
:100D4000044690F83C000D4601283BD0012684F86B
:100D50003C60022084F83D009AB3042A44D0206805
:100D6000082A53D0D5E90027E968036A23F48053A1
:100D70000362D0F81CC0036A2CF4407C4CEA0727BD
:100D80004FF6FF7C27F470470CEA013139437703B3
:100D900023F4005307EA02321A43C1610262206859
:100DA000C16921F44061C1612068C169AA6841EA52
:100DB0000221C16184F83D60002084F83C00BDE858
:100DC000F08101E00220FAE7D5E90012EB68206823
:100DD00000F01AFE2068816921F00C018161206811
:100DE0008169AA6811430FE0D5E90012EB68206819
:100DF00000F048FE2068816921F44061816120682B
:100E00008169AA6841EA02218161D3E7D5E9002C12
:100E10002F7B016A21F480710162C169036A21F0AC
:100E2000030141EA0C0121F0F00C39074FF400777F
:100E30004CEA116123F4007307EA02221A43C161EC
:100E400002622068C16921F00C01C1612068C1699A
:100E5000AA681143ADE710B5040003D094F83D0033
:100E600010B107E0012010BD002084F83C002046AE
:100E700000F00CF8022084F83D00211D206800F0ED
:100E8000B9FC012084F83D00002010BD704770B50A
:100E90000446006801694FF00005C943890715D46D
:100EA000C168C943890711D4E91E01610120207777
:100EB000206880698007204602D0FFF721FF04E008
:100EC00000F0BEF8204600F040F92577206801695F
:100ED000C943490717D4C168C943490713D46FF000
:100EE00004010161022020772068806910F4407FAE
:100EF000204602D0FFF704FF04E000F0A1F82046EE
:100F000000F023F9257720680169C943090716D441
:100F1000C168C943090712D46FF0080101610420B8
:100F200020772068C0698007204602D0FFF7E8FEDE
:100F300004E000F085F8204600F007F925772068E6
:100F40000169C943C90617D4C168C943C90613D486
:100F50006FF010010161082020772068C06910F44B
:100F6000407F204602D0FFF7CBFE04E000F068F897
:100F7000204600F0EAF8257720680169C943C907CF
:100F800008D1C168C943C90704D1891E016120463F
:100F900000F022F920680169C943090609D4C16833
:100FA000C943090605D46FF0800101612046FFF7AF
:100FB000B3FD20680169C943490609D4C168C94322
:100FC000490605D46FF040010161204600F01AF98E
:100FD00020680169C94389060BD4C168C9438906E1
:100FE00007D46FF0200101612046BDE87040FFF793
:100FF00094BD70BD00B585B00021009101910291B2
:10100000039100680B49884212D10B48816941F075
:10101000080181618069694600F0080004904FF47E
:10102000E07000900220019003900448FFF750F90F
:1010300005B000BD0008004000100240000C014057
:10104000704770B5044690F83C000D4601280DD05D
:10105000012684F83C60022084F83D0042B1042A55
:1010600018D0082A2AD00C2A4DD139E0022070BDB0
:10107000206800F015FC2068816941F00801816159
:101080002068816921F004018161206881692A69F1
:10109000114311E0206800F02BFC2068816941F4C5
:1010A000006181612068816921F48061816120682B
:1010B00081692A6941EA0221816124E0206800F007
:1010C00043FC2068C16941F00801C1612068C16921
:1010D00021F00401C1612068C1692A69114311E04E
:1010E000206800F05DFC2068C16941F40061C161C5
:1010F0002068C16921F48061C1612068C1692A69E1
:1011000041EA0221C16184F83D60002084F83C007E
:1011100070BD10B5040003D094F83D0010B107E095
:10112000012010BD002084F83C00204600F00CF89F
:10113000022084F83D00211D206800F05BFB0120A7
:1011400084F83D00002010BD7047704710B504467C
:101150000068012200F084FB09492068884203D11D
:10116000416C41F4004141642068816801F007014D
:10117000062903D0016841F001010160002010BD83
:10118000002C014010B504460068002200F068FB06
:10119000104B41F2111120688A10984209D1036A5C
:1011A0000B4206D1036A134203D1436C23F400437C
:1011B00043642068036A0B4206D1016A114203D1DD
:1011C000016821F001010160012084F83D00002048
:1011D00010BD0000002C014070470246002041B1C4
:1011E000042909D008290AD00C2901D11068006C03
:1011F00070471068406B70471068806B70471068CC
:10120000C06B70477047704770B50268044610683D
:10121000D168536910F00F0F50D003F0010501F4AD
:10122000907635435DD0C20705D0CA0503D5E26B81
:1012300042F00102E263420705D5DA0703D0E26B10
:1012400042F00202E263820705D5DA0703D0E26BBF
:1012500042F00402E263020705D5DA0703D0E26B2D
:1012600042F00802E263E26B002A33D0800604D524
:10127000880602D5204600F036FC20684069E16B04
:10128000C0F38010090700D428B3204600F01DFCED
:101290002068416949061AD5416921F04001416140
:1012A000606BA0B11B494163606BFEF78FFF0028A4
:1012B00010D0606B416BBDE870400847830610D5C5
:1012C0008B060ED52046BDE8704000F00CBC2046D1
:1012D000FFF799FF70BD2046FFF795FF0020E06300
:1012E00070BD030606D50B0604D52046BDE8704048
:1012F00000F0A0BC4006F3D54806F1D5D1682046E1
:1013000021F04001D160202184F8391000F04FF91C
:1013100070BD0000BB1A000870B5040004D094F83A
:101320003900002510B106E0012070BD84F8385066
:10133000204600F023F8242084F839002068C16892
:1013400021F40051C160204600F018FC20680169BA
:1013500021F4904101612068416921F02A01416135
:101360002068C16841F40051C160E563202084F821
:10137000390084F83A00002070BD000030B585B017
:101380000024009401940294039400681849884250
:101390002CD11848C16941F48021C161C16901F4AF
:1013A00080210491816941F0080181618069124DB9
:1013B00000F0080004904FF480600090022001903B
:1013C0000320039069462846FEF782FFE814CDE922
:1013D0000004694628460294FEF77AFF002211466F
:1013E0002720FFF7D7F82720FFF7C6F805B030BD54
:1013F0000048004000100240000C014090F83A30D4
:10140000202B22D1F9B1F2B190F83830012B1CD049
:1014100081628285C2850021C163222280F83A2040
:1014200080F838100168CA6842F48072CA600168A6
:101430004A6942F001024A610068C16841F0200136
:10144000C1600020704701207047022070470000F3
:1014500010B525490068096888423DD123490879BB
:1014600030280BD0012231280DD0322821D00A4655
:101470003328D28820D0342829D02DE0002048708D
:1014800000F048FF28E04A708A70184843F2D402FE
:1014900017A11C3000F03AFC14481C30FEF754FE33
:1014A000124982B24FF0FF331C310F4800F022F88E
:1014B00012E04A708A700FE0643290B2C880B0F5D2
:1014C0007A7F02D340F2E730C88080B202E0643A0B
:1014D00090B2C88000F014FF04490122BDE810401A
:1014E000091D0148FFF78ABFB4000020000000205A
:1014F000256400002DE9F843044690F839001F46A2
:1015000016460D46202850D1A5B19EB194F838005A
:1015100001284AD0012084F838004FF00008C4F8B0
:101520003C80212084F83900FEF7C8FFA68481465C
:10153000E68426E00120BDE8F883E08C401EE084CC
:10154000A0684B46B0F5805F4FF000024FF080017D
:101550002046009703D000F09EFBE8B90DE000F0B4
:101560009AFBC8B928882168C0F308004860206940
:1015700008B16D1C05E0AD1C03E0216815F8010BF6
:101580004860E08C0028D8D14B46002240212046FC
:10159000009700F080FB08B10320CCE7202084F8FE
:1015A000390084F838800020C5E70220C3E770477F
:1015B000FEE7000070B586B0002421480094019435
:1015C00002940394816941F008018161816901F00D
:1015D00008010491816941F0040181618069194E1B
:1015E00000F004004FF418450490002229463046CC
:1015F000FEF75EFF4FF4E06000901348CDE9010470
:1016000069463046FEF764FE01200095CDE90104ED
:101610000220039069463046FEF75AFE002211462A
:101620001720FEF7B7FF1720FEF7A6FF002211468E
:101630002820FEF7AFFF2820FEF79EFF06B070BD02
:1016400000100240000801400000311010B58AB0BF
:1016500000241A4804940594069407940894099465
:101660000094019402944FF080410394016007219B
:10167000C0E9011442F20F71C0E903148461FFF75D
:101680006EFA4FF48050049004A90C48FFF7CCFA8E
:101690000A48FFF7E0FB089408A908480994FFF7F7
:1016A0003DFA0120CDE90040029404226946034836
:1016B0000394FFF743FB0AB010BD00003400002084
:1016C00010B58EB000240794089409940A940B94E2
:1016D0001C2168460C94FEF72CFD1C481A49016039
:1016E0000721C0E9011440F2E731C0E90314846125
:1016F000FFF735FA4FF48050079007A91348FFF71A
:1017000093FA1248FFF705FD0B940BA90F480C94B0
:10171000FFF704FA6020CDE9000402940022694634
:101720000A480494FFF78DFC042269460748FFF736
:1017300088FC082269460548FFF783FC0348FFF749
:1017400059FC0EB010BD00000008004074000020DD
:10175000FEE7704770477047FEF7B6BE10B590B011
:1017600028216846FEF7E5FC14210AA8FEF7E1FCF3
:10177000022000900120049010200024059007947E
:101780006846FFF725F80F20CDE90A040C940D9464
:1017900000210AA80E94FEF72FFF10B010BD000024
:1017A0000D48016841F00101016041680B4A114098
:1017B000416001680A4A11400160016821F48021FA
:1017C0000160416821F4FE0141604FF41F01816016
:1017D0000449C00308607047001002400000FFF891
:1017E000FFFFF6FE08ED00E00148FFF750BB0000E8
:1017F00034000020F0B50268164B174C174D4FF01F
:101800008047984205D0B84203D0A04201D0A842F8
:1018100003D122F070064A683243984205D0B8429C
:1018200003D0A04201D0A84203D122F44074CA6878
:1018300022434C6922F08002224302608A68C2621D
:101840000A688262984201D10969016301214161FC
:10185000F0BD0000002C01400004004000080040E2
:1018600010B501F01F030121046A99408C43046202
:10187000016A9A401143016210BD10B5846842EAC2
:10188000032224F47F440A432243826010BD82680D
:1018900022F070020A4342F00701816070470000A5
:1018A00030B5026A22F001020262026A436884696A
:1018B00024F073050C682C4322F002058A682A4341
:1018C0000A4DA8420BD122F00805CA6823F44073E0
:1018D0002A434D6922F004021D438B692B43436068
:1018E000846149684163026230BD0000002C014000
:1018F00030B5026A22F010020262026A436884690B
:101900000D6824F4E64444EA05248D6822F02002A0
:1019100042EA05120B4DA8420ED1CD6822F080029A
:1019200042EA05124D6923F4406343EA85038D6959
:1019300022F0400243EA8503436084614968816381
:10194000026230BD002C014030B5026A22F4807280
:101950000262036A4268C46923F4007324F07305C9
:101960000C682C438D6843EA05230C4DA8420ED128
:10197000CD6823F4006343EA05234D6922F4405205
:1019800042EA05128D6923F4806342EA051242603F
:10199000C4614968C163036230BD0000002C01408E
:1019A00030B5026A22F480520262046A4268C36956
:1019B0000D6823F4E64343EA05238D6824F40054BC
:1019C00044EA0534064DA84204D14D6922F4804210
:1019D00042EA85124260C36149680164046230BD15
:1019E000002C014010B5036A046A24F0010404626B
:1019F000846924F0F00444EA021423F00A020A4342
:101A00008461026210BD000070B5046A24F0010414
:101A100004628469056A0F4EB04208D0B0F1804F6D
:101A200005D00D4EB04202D00C4EB04203D124F08E
:101A30000304144301E044F001041A0724F0F00405
:101A400044EA126225F00A0301F00A011943826197
:101A5000016270BD002C01400004004000080040FD
:101A600010B5036A23F0100303628369046A23F448
:101A7000704343EA023224F0A00343EA0111826179
:101A8000016210BD30B5046A24F010040462846958
:101A9000056A24F4407444EA022222F470444FF6AA
:101AA000FF7202EA03322243A02425F0A00304EAD5
:101AB000011119438261016230BD10B5406A0021F5
:101AC000C185C184FFF79FFB10BD0168CA6822F47D
:101AD0009072CA6001684A6922F001024A612021BD
:101AE00080F83A10704710B590F83A10222901D0CA
:101AF000022010BD8168B1F5805F11D00169002915
:101B000001681FD0496801F07F03816A4A1C826224
:101B10000B70C18D491E0904090CC18518D02BE03A
:101B20000269816A002A0268526805D0D2B20A802E
:101B3000816A491C8162ECE7C2F308020A80816A6B
:101B4000891CF7E74A68816A4B1C83620A70E0E7E8
:101B50000168CA6822F02002CA600168CA6822F4DB
:101B60008072CA6001684A6922F001024A6120213C
:101B700080F83A10FFF76CFC002010BD2DE9F04111
:101B8000044600680169E26821F440511143016193
:101B90002169A0680843616908432168CA6841F265
:101BA0000C639A430243CA6020684169A26921F428
:101BB0004071114341611E492068642532268842E4
:101BC00002D1FEF7BFFD01E0FEF7ACFD00EBC00166
:101BD00001EB001160686FF018078000B1FBF0F2B4
:101BE000B2FBF5F2B1FBF0F37A4303EB8202B1FBF7
:101BF000F0F306EB0212B2FBF5F2B3FBF5F302F0E1
:101C0000F00202EB0312B1FBF0F3B1FBF0F0B0FB1A
:101C1000F5F0784303EB800006EB0010B0FBF5F025
:101C2000216800F00F0010448860BDE8F0810000DA
:101C30000038014090F83910212901D00220704766
:101C40008168B1F5805F016A0BD04A1C02620268AC
:101C500009785160C18C491E0904090CC1840ED059
:101C600017E009880268C1F3080151600169002981
:101C7000016A02D0491C0162ECE7891CFBE701689C
:101C8000CA6822F08002CA600068C16841F0400161
:101C9000C160002070472DE9F041984617460E4676
:101CA0000446069D1DE0681C1BD02DB1FEF706FC06
:101CB000A0EB0800A84214D92068C16821F4D071B3
:101CC000C1602068416921F001014161202084F850
:101CD000390084F83A00002084F838000320BDE879
:101CE000F0812068006836EA000004D00020B84285
:101CF000D9D00020F3E70120F9E700000148FFF701
:101D000083BA0000B4000020FEE700000FB4084BC7
:101D100010B504A902AA039800F02CF8044602A901
:101D2000002000F0D1F8204610BC5DF814FB000044
:101D3000C91E00080907090E002804DB00F1E02095
:101D400080F80014704700F00F0000F1E02080F8E8
:101D5000141D704702E008C8121F08C1002AFAD1FA
:101D600070477047002001E001C1121F002AFBD11B
:101D7000704700002DE9FF4F89B09B4604460025BF
:101D800006E025280BD05A460B999047641C6D1C21
:101D900020780028F5D10DB02846BDE8F08F002747
:101DA000B8460122474900E0074314F8013F203BB1
:101DB00002FA03F00842F7D120782E2819D114F83E
:101DC000010F47F004072A280ED06FF02F02207869
:101DD000A0F1300109290CD808EB880102EB410180
:101DE00000EB0108641CF2E70A98641C50F8048BAD
:101DF0000A9020780028CED0642808D0692806D020
:101E000075281ED05A460B9990476D1C58E00A99C8
:101E10004FF00A0901C90A91002802DA40422D2137
:101E200002E0390504D52B218DF82010012103E0B3
:101E3000F90704D02021F7E78A4608AE0DE000211B
:101E4000FAE70A994FF00A0901C90A91F7E74946EA
:101E5000FEF781F9303106F8011D0028F7D1ADEB0E
:101E6000060000F12009780701D44FF00108C845A9
:101E700002DDA8EB090000E000208046002706E014
:101E800008A85A46C05D0B9990476D1C7F1C5745AA
:101E9000F6DB04E030205A460B9990476D1CB8F1F0
:101EA0000001A8F10108F5DC05E016F8010B5A461F
:101EB0000B9990476D1CB9F10001A9F10109F4DCFF
:101EC000641C65E7092801000A68531C0B60107048
:101ED00070470000FEF700FBFFF740FCFFF76AFBCE
:101EE000FFF7EEFB33483249002701604FF41651EB
:101EF000C0E901170C21C760C0E904718761C7619F
:101F0000FFF70AFAFFF7A2FB2B4C01266770E77078
:101F1000A770267000F0FEF9E08800F0F1F90122C8
:101F2000211D2448FFF76AFA67703AE089B3012857
:101F300013D00228FAD1C8250120FEF793F900F04A
:101F400063F82078401CC0B22070062800D92670A3
:101F50006D1E012DF0D8E67020E0C8250120FEF7A7
:101F600081F900F00FF92078401CC0B220700628DB
:101F700000D926706D1E00F021F8012DEED8E67014
:101F800004E000BF00F0FEF800F018F8607800B13F
:101F9000F8E706E000F038F800F010F86078002864
:101FA000F8D100F0B7F9E770A0786178BEE70000DB
:101FB00000480040B40000200000002010B5FEF7EB
:101FC0007DFA0E4948610A69821AB2F57A7F14D9FE
:101FD00008610A488A690AA11C30FFF797FE074882
:101FE0001C30FEF7B1F8054982B2BDE810404FF051
:101FF000FF331C310348FFF77DBA10BD00000020FD
:1020000025640000B40000202DE9F0415A485B4CE3
:102010004FF480570078FD00E61407287ED2DFE8F1
:1020200000F09273563D2D14040004215448FFF72C
:10203000A9F8002239462046FEF73AFA082150480E
:10204000FFF7A0F8012229460EE008214C48FFF7CF
:1020500099F8002229462046FEF72AFA042148482A
:10206000FFF790F8012239462046FEF721FA0122B7
:1020700031462046FEF71CFA00215FE00821404867
:10208000FFF780F8002229462046FEF711FA0021CA
:102090003B48FFF777F8012231460EE0002138482F
:1020A000FFF770F8002231462046FEF701FA0821BA
:1020B0003348FFF767F8012229462046FEF7F8F972
:1020C000012239462046FEF7F3F9042136E00421C7
:1020D0002B48FFF757F8012239462046FEF7E8F96A
:1020E000012229462046FEF7E3F908212448FFF79C
:1020F0002DF800212248FFF745F8002231462046FE
:10210000BDE8F041FEF7D4B900211D48FFF73AF8C9
:10211000012231462046FEF7CBF900E013E004210E
:102120001748FFF72FF8002239462046FEF7C0F97E
:10213000012229462046FEF7BBF90821BDE8F041FF
:102140000F48FFF703B800210D48FFF71BF80122E5
:1021500031462046FEF7ACF904210948FFF712F892
:10216000012239462046FEF7A3F908210448FFF76B
:1021700009F801222946C2E70000002000080140BA
:10218000740000202DE9F0415A485B4C4FF4805711
:102190000078FD00E61407287ED2DFE800F0920404
:1021A000142D3D56730004215448FEF7EBFF002226
:1021B00039462046FEF77CF908215048FEF7E2FF39
:1021C000012229460EE008214C48FEF7DBFF0022E1
:1021D00029462046FEF76CF904214848FEF7D2FF55
:1021E000012239462046FEF763F901223146204696
:1021F000FEF75EF900215FE008214048FEF7C2FFCC
:10220000002229462046FEF753F900213B48FEF7FD
:10221000B9FF012231460EE000213848FEF7B2FF37
:10222000002231462046FEF743F908213348FEF7E5
:10223000A9FF012229462046FEF73AF90122394634
:102240002046FEF735F9042136E004212B48FEF73D
:1022500099FF012239462046FEF72AF90122294634
:102260002046FEF725F908212448FEF76FFF0021DC
:102270002248FEF787FF002231462046BDE8F041A4
:10228000FEF716B900211D48FEF77CFF01223146FA
:102290002046FEF70DF900E013E004211748FEF791
:1022A00071FF002239462046FEF702F90122294635
:1022B0002046FEF7FDF80821BDE8F0410F48FEF783
:1022C00045BF00210D48FEF75DFF01223146204643
:1022D000FEF7EEF804210948FEF754FF01223946C3
:1022E0002046FEF7E5F808210448FEF74BFF0122DF
:1022F0002946C2E7000000200008014074000020C9
:1023000003490A6850630A6890630968C8637047A4
:102310007400002010B500210E48FEF733FF0E4C6C
:102320000122D1022046FEF7C3F804210948FEF736
:1023300029FF012211032046FEF7BAF808210548BB
:10234000FEF720FF20460122BDE81040D103FEF732
:10235000AFB8000074000020000801400000000039
:102360000000000001020304060708090000000045
:102370000102030494230008000000203400000040
:10238000541D0008C823000834000020C4040000C5
:10239000641D00080000000000008303000000002E
:1023A000000000000000000000000000000000002D
:1023B000000000000000000001000000100000000C
:0823C000000000000024F400FD
:04000005080000ED02
:00000001FF
